{
  "contractName": "SubscriptionWallet",
  "abi": [
    {
      "constant": true,
      "inputs": [],
      "name": "getBalance",
      "outputs": [
        {
          "name": "",
          "type": "uint256"
        }
      ],
      "payable": false,
      "stateMutability": "view",
      "type": "function"
    },
    {
      "constant": false,
      "inputs": [
        {
          "name": "amount",
          "type": "uint256"
        }
      ],
      "name": "withdrawFunds",
      "outputs": [],
      "payable": false,
      "stateMutability": "nonpayable",
      "type": "function"
    },
    {
      "constant": false,
      "inputs": [
        {
          "name": "_issuer",
          "type": "address"
        }
      ],
      "name": "deactivateSubscription",
      "outputs": [],
      "payable": false,
      "stateMutability": "nonpayable",
      "type": "function"
    },
    {
      "constant": false,
      "inputs": [
        {
          "name": "_issuer",
          "type": "address"
        }
      ],
      "name": "removeSubscription",
      "outputs": [],
      "payable": false,
      "stateMutability": "nonpayable",
      "type": "function"
    },
    {
      "constant": true,
      "inputs": [],
      "name": "owner",
      "outputs": [
        {
          "name": "",
          "type": "address"
        }
      ],
      "payable": false,
      "stateMutability": "view",
      "type": "function"
    },
    {
      "constant": true,
      "inputs": [],
      "name": "getSubscriptionIssuers",
      "outputs": [
        {
          "name": "",
          "type": "address[]"
        }
      ],
      "payable": false,
      "stateMutability": "view",
      "type": "function"
    },
    {
      "constant": false,
      "inputs": [
        {
          "name": "_issuer",
          "type": "address"
        }
      ],
      "name": "activateSubscription",
      "outputs": [],
      "payable": false,
      "stateMutability": "nonpayable",
      "type": "function"
    },
    {
      "constant": false,
      "inputs": [
        {
          "name": "_issuer",
          "type": "address"
        },
        {
          "name": "_subscriptionTimeFrame",
          "type": "uint256"
        },
        {
          "name": "_maxAmount",
          "type": "uint256"
        }
      ],
      "name": "addSubscription",
      "outputs": [
        {
          "name": "",
          "type": "bool"
        }
      ],
      "payable": false,
      "stateMutability": "nonpayable",
      "type": "function"
    },
    {
      "constant": false,
      "inputs": [
        {
          "name": "amount",
          "type": "uint256"
        }
      ],
      "name": "withdrawForSubscription",
      "outputs": [],
      "payable": false,
      "stateMutability": "nonpayable",
      "type": "function"
    },
    {
      "constant": true,
      "inputs": [
        {
          "name": "_issuer",
          "type": "address"
        }
      ],
      "name": "getSubscrition",
      "outputs": [
        {
          "name": "",
          "type": "uint256"
        },
        {
          "name": "",
          "type": "uint256"
        },
        {
          "name": "",
          "type": "uint256"
        },
        {
          "name": "",
          "type": "uint256"
        },
        {
          "name": "",
          "type": "bool"
        }
      ],
      "payable": false,
      "stateMutability": "view",
      "type": "function"
    },
    {
      "inputs": [],
      "payable": false,
      "stateMutability": "nonpayable",
      "type": "constructor"
    },
    {
      "payable": true,
      "stateMutability": "payable",
      "type": "fallback"
    }
  ],
  "bytecode": "0x6060604052341561000f57600080fd5b336000806101000a81548173ffffffffffffffffffffffffffffffffffffffff021916908373ffffffffffffffffffffffffffffffffffffffff1602179055506109a98061005e6000396000f3006060604052600436106100a4576000357c0100000000000000000000000000000000000000000000000000000000900463ffffffff16806312065fe0146100a6578063155dd5ee146100cf578063472ab71b146100f25780635d2052a81461012b5780638da5cb5b14610164578063901e7a89146101b9578063a90554ce14610223578063d1ce31c31461025c578063f9c40262146102bf578063ff7f2a0b146102e2575b005b34156100b157600080fd5b6100b961034f565b6040518082815260200191505060405180910390f35b34156100da57600080fd5b6100f0600480803590602001909190505061036e565b005b34156100fd57600080fd5b610129600480803573ffffffffffffffffffffffffffffffffffffffff169060200190919050506103d2565b005b341561013657600080fd5b610162600480803573ffffffffffffffffffffffffffffffffffffffff16906020019091905050610430565b005b341561016f57600080fd5b6101776104bd565b604051808273ffffffffffffffffffffffffffffffffffffffff1673ffffffffffffffffffffffffffffffffffffffff16815260200191505060405180910390f35b34156101c457600080fd5b6101cc6104e2565b6040518080602001828103825283818151815260200191508051906020019060200280838360005b8381101561020f5780820151818401526020810190506101f4565b505050509050019250505060405180910390f35b341561022e57600080fd5b61025a600480803573ffffffffffffffffffffffffffffffffffffffff16906020019091905050610576565b005b341561026757600080fd5b6102a5600480803573ffffffffffffffffffffffffffffffffffffffff169060200190919080359060200190919080359060200190919050506105d3565b604051808215151515815260200191505060405180910390f35b34156102ca57600080fd5b6102e060048080359060200190919050506106e5565b005b34156102ed57600080fd5b610319600480803573ffffffffffffffffffffffffffffffffffffffff16906020019091905050610894565b60405180868152602001858152602001848152602001838152602001821515151581526020019550505050505060405180910390f35b60003073ffffffffffffffffffffffffffffffffffffffff1631905090565b6000809054906101000a900473ffffffffffffffffffffffffffffffffffffffff1673ffffffffffffffffffffffffffffffffffffffff166108fc829081150290604051600060405180830381858888f1935050505015156103cf57600080fd5b50565b6000600160008373ffffffffffffffffffffffffffffffffffffffff1673ffffffffffffffffffffffffffffffffffffffff16815260200190815260200160002060040160006101000a81548160ff02191690831515021790555050565b600160008273ffffffffffffffffffffffffffffffffffffffff1673ffffffffffffffffffffffffffffffffffffffff1681526020019081526020016000206000808201600090556001820160009055600282016000905560038201600090556004820160006101000a81549060ff02191690556004820160016101000a81549060ff0219169055505050565b6000809054906101000a900473ffffffffffffffffffffffffffffffffffffffff1681565b6104ea610918565b600280548060200260200160405190810160405280929190818152602001828054801561056c57602002820191906000526020600020905b8160009054906101000a900473ffffffffffffffffffffffffffffffffffffffff1673ffffffffffffffffffffffffffffffffffffffff1681526020019060010190808311610522575b5050505050905090565b60018060008373ffffffffffffffffffffffffffffffffffffffff1673ffffffffffffffffffffffffffffffffffffffff16815260200190815260200160002060040160006101000a81548160ff02191690831515021790555050565b600080600160008673ffffffffffffffffffffffffffffffffffffffff1673ffffffffffffffffffffffffffffffffffffffff16815260200190815260200160002090504281600001819055508381600101819055508281600201819055506000816003018190555060018160040160006101000a81548160ff02191690831515021790555060018160040160016101000a81548160ff0219169083151502179055506002805480600101828161068a919061092c565b9160005260206000209001600087909190916101000a81548173ffffffffffffffffffffffffffffffffffffffff021916908373ffffffffffffffffffffffffffffffffffffffff1602179055505060019150509392505050565b6000600160003373ffffffffffffffffffffffffffffffffffffffff1673ffffffffffffffffffffffffffffffffffffffff16815260200190815260200160002090508060040160009054906101000a900460ff16151561074557600080fd5b42816001015482600001540110156107e75742600160003373ffffffffffffffffffffffffffffffffffffffff1673ffffffffffffffffffffffffffffffffffffffff168152602001908152602001600020600001819055506000600160003373ffffffffffffffffffffffffffffffffffffffff1673ffffffffffffffffffffffffffffffffffffffff168152602001908152602001600020600301819055505b8060030154820181600201541015151561080057600080fd5b81600160003373ffffffffffffffffffffffffffffffffffffffff1673ffffffffffffffffffffffffffffffffffffffff168152602001908152602001600020600301600082825401925050819055503373ffffffffffffffffffffffffffffffffffffffff166108fc839081150290604051600060405180830381858888f19350505050151561089057600080fd5b5050565b600080600080600080600160008873ffffffffffffffffffffffffffffffffffffffff1673ffffffffffffffffffffffffffffffffffffffff168152602001908152602001600020905080600001548160010154826002015483600301548460040160009054906101000a900460ff16955095509550955095505091939590929450565b602060405190810160405280600081525090565b815481835581811511610953578183600052602060002091820191016109529190610958565b5b505050565b61097a91905b8082111561097657600081600090555060010161095e565b5090565b905600a165627a7a7230582002f57f59474cf7f79479879139e1182775b04db20b3042fd7ef0e35e953a74eb0029",
  "source": "pragma solidity ^0.4.18;\n\ncontract SubscriptionWallet {\n    address public owner;\n\n    mapping (address => Subscription) subscriptions;\n    address[] subscriptionIssuers;\n\n\n\n    struct Subscription {\n        uint cycleStart;\n        uint subscriptionTimeFrame;\n        uint maxAmount;\n        uint withdrawnAmount;\n        bool approved;\n        bool exists;\n    }\n\n     //creator\n    function SubscriptionWallet() public {\n        owner = msg.sender;\n    }\n\n\n    function addSubscription (address _issuer,\n                            uint _subscriptionTimeFrame,\n                            uint _maxAmount) public returns(bool)\n    {\n        //var exists = subscriptions[_issuer].exists;\n        var newSub = subscriptions[_issuer];\n        newSub.cycleStart = block.timestamp;\n        newSub.subscriptionTimeFrame = _subscriptionTimeFrame;\n        newSub.maxAmount = _maxAmount;\n        newSub.withdrawnAmount = 0;\n        newSub.approved = true;\n        newSub.exists = true;\n\n        subscriptionIssuers.push(_issuer);\n        return true;\n    }\n\n    function getSubscriptionIssuers() view public returns(address[]) {\n        return subscriptionIssuers;\n    }\n\n    function getSubscrition(address _issuer) view public returns(uint,uint,uint,uint,bool) {\n        var s = subscriptions[_issuer];\n        return (\n        s.cycleStart,\n        s.subscriptionTimeFrame,\n        s.maxAmount,\n        s.withdrawnAmount,\n        s.approved);\n    }\n\n    function activateSubscription(address _issuer) public {\n        subscriptions[_issuer].approved = true;\n    }\n\n    function deactivateSubscription(address _issuer) public {\n        subscriptions[_issuer].approved = false;\n    }\n\n\n\n    function withdrawForSubscription(uint amount) public {\n\n        var s =  subscriptions[msg.sender];\n        require(s.approved);\n\n        //put into modifier https://www.youtube.com/watch?v=HGw-yalqdgs\n        if(s.cycleStart+s.subscriptionTimeFrame<block.timestamp) {\n            subscriptions[msg.sender].cycleStart = block.timestamp;\n            subscriptions[msg.sender].withdrawnAmount = 0;\n        }\n\n        require(s.maxAmount>=amount+s.withdrawnAmount);\n        subscriptions[msg.sender].withdrawnAmount+= amount;\n        require(msg.sender.send(amount));\n    }\n\n    function removeSubscription (address _issuer) public {\n        delete subscriptions[_issuer];\n\n    }\n\n    //receive payment.\n    function () public payable {\n\n    }\n\n    //only callable by owner need to integrate this\n    function withdrawFunds(uint amount) public {\n\n        owner.transfer(amount);\n    }\n\n    function getBalance() view public returns (uint) {\n        return address(this).balance;\n    }\n\n\n\n}\n",
  "sourcePath": "/Users/hauri/crypto/subscriptionP/subscriptionApp/contracts/subscriptionWallet.sol",
  "compiler": {
    "name": "solc",
    "version": "0.4.18+commit.9cf6e910.Emscripten.clang"
  },
  "schemaVersion": "1.0.1",
  "updatedAt": "2018-02-10T16:40:35.199Z"
}